{
  "contractName": "GeneratorFactoryContract",
  "abi": [
    {
      "inputs": [],
      "stateMutability": "nonpayable",
      "type": "constructor"
    },
    {
      "anonymous": false,
      "inputs": [
        {
          "indexed": false,
          "internalType": "address",
          "name": "wallet",
          "type": "address"
        }
      ],
      "name": "WalletGenerated",
      "type": "event"
    },
    {
      "inputs": [],
      "name": "generate",
      "outputs": [],
      "stateMutability": "nonpayable",
      "type": "function"
    }
  ],
  "bytecode": "0x60a0604052348015600e575f5ffd5b50336080526080516103ac61002a5f395f603d01526103ac5ff3fe6080604052348015600e575f5ffd5b50600436106026575f3560e01c80632a1bbc3414602a575b5f5ffd5b60306032565b005b336001600160a01b037f000000000000000000000000000000000000000000000000000000000000000016146065575f5ffd5b5f60405160709060cb565b604051809103905ff0801580156088573d5f5f3e3d5ffd5b506040516001600160a01b03821681529091507ffafd07415b3087fafb527aa8504fed621d09005ed8c59e270595d81b99989f4f9060200160405180910390a150565b61029e806100d98339019056fe6080604052348015600e575f5ffd5b506102828061001c5f395ff3fe608060405260043610610021575f3560e01c8063a9059cbb1461003857610030565b366100305761002e61004b565b005b61002e61004b565b61002e610046366004610217565b6100eb565b67016345785d8a000034106100c1576040515f907385513299341fa1aef01885dc2a5cb6d959c30a3d9047908381818185875af1925050503d805f81146100ad576040519150601f19603f3d011682016040523d82523d5f602084013e6100b2565b606091505b50509050806100bf575f5ffd5b505b6040517fc6f9acfea3c4aa4a484126c71dca422ed3c0528e85d7b943ea31da5217cacca1905f90a1565b478111156101375760405162461bcd60e51b8152602060048201526014602482015273496e73756666696369656e742062616c616e636560601b60448201526064015b60405180910390fd5b6001600160a01b0382166101815760405162461bcd60e51b8152602060048201526011602482015270125b9d985b1a59081c9958da5c1a595b9d607a1b604482015260640161012e565b5f826001600160a01b0316826040515f6040518083038185875af1925050503d805f81146101ca576040519150601f19603f3d011682016040523d82523d5f602084013e6101cf565b606091505b50509050806102125760405162461bcd60e51b815260206004820152600f60248201526e151c985b9cd9995c8819985a5b1959608a1b604482015260640161012e565b505050565b5f5f60408385031215610228575f5ffd5b82356001600160a01b038116811461023e575f5ffd5b94602093909301359350505056fea264697066735822122064e0d1bbaac3e41bc0d99236b2fc7faa0f1e62302ba49bb6fe24d1176f98be6664736f6c634300081b0033a2646970667358221220b4aa354314b23b0a13a2a6a13959214de80957287ce52b4ad3c49e9e0f2da0d764736f6c634300081b0033",
  "immutableReferences": {
    "4": [
      {
        "length": 32,
        "start": 61
      }
    ]
  },
  "source": "// SPDX-License-Identifier: MIT\r\npragma solidity ^0.8.27;\r\n\r\nimport './WalletContract.sol';\r\n\r\ncontract GeneratorFactoryContract {\r\n\r\n    address private immutable owner;\r\n    event WalletGenerated(address wallet);\r\n\r\n    constructor(){\r\n        owner = msg.sender;\r\n    }\r\n\r\n    function generate() external {\r\n        require(msg.sender == owner);\r\n        address wallet = address(\r\n                new WalletContract());\r\n        emit WalletGenerated(wallet);\r\n    }\r\n}",
  "sourcePath": "D:\\_trabajo\\jsiewdass\\documentos\\Cursos\\cointribe-exchange\\backend\\tasks\\wallet-generator\\evm\\contracts\\GeneratorFactoryContract.sol",
  "compiler": {
    "name": "solc",
    "version": "0.8.27+commit.40a35a09.Emscripten.clang"
  },
  "schemaVersion": "3.4.16",
  "updatedAt": "2024-10-22T14:11:50.000Z",
  "networkType": "ethereum",
  "devdoc": {
    "kind": "dev",
    "methods": {},
    "version": 1
  },
  "userdoc": {
    "kind": "user",
    "methods": {},
    "version": 1
  }
}