{
  "contractName": "TRC20Token",
  "abi": [
    {
      "inputs": [
        {
          "internalType": "string",
          "name": "_name",
          "type": "string"
        },
        {
          "internalType": "string",
          "name": "_symbol",
          "type": "string"
        },
        {
          "internalType": "uint256",
          "name": "_initialSupply",
          "type": "uint256"
        }
      ],
      "stateMutability": "nonpayable",
      "type": "constructor"
    },
    {
      "anonymous": false,
      "inputs": [
        {
          "indexed": true,
          "internalType": "address",
          "name": "owner",
          "type": "address"
        },
        {
          "indexed": true,
          "internalType": "address",
          "name": "spender",
          "type": "address"
        },
        {
          "indexed": false,
          "internalType": "uint256",
          "name": "value",
          "type": "uint256"
        }
      ],
      "name": "Approval",
      "type": "event"
    },
    {
      "anonymous": false,
      "inputs": [
        {
          "indexed": true,
          "internalType": "address",
          "name": "from",
          "type": "address"
        },
        {
          "indexed": true,
          "internalType": "address",
          "name": "to",
          "type": "address"
        },
        {
          "indexed": false,
          "internalType": "uint256",
          "name": "value",
          "type": "uint256"
        }
      ],
      "name": "Transfer",
      "type": "event"
    },
    {
      "inputs": [
        {
          "internalType": "address",
          "name": "",
          "type": "address"
        },
        {
          "internalType": "address",
          "name": "",
          "type": "address"
        }
      ],
      "name": "allowed",
      "outputs": [
        {
          "internalType": "uint256",
          "name": "",
          "type": "uint256"
        }
      ],
      "stateMutability": "view",
      "type": "function"
    },
    {
      "inputs": [
        {
          "internalType": "address",
          "name": "",
          "type": "address"
        }
      ],
      "name": "balances",
      "outputs": [
        {
          "internalType": "uint256",
          "name": "",
          "type": "uint256"
        }
      ],
      "stateMutability": "view",
      "type": "function"
    },
    {
      "inputs": [],
      "name": "name",
      "outputs": [
        {
          "internalType": "string",
          "name": "",
          "type": "string"
        }
      ],
      "stateMutability": "view",
      "type": "function"
    },
    {
      "inputs": [],
      "name": "symbol",
      "outputs": [
        {
          "internalType": "string",
          "name": "",
          "type": "string"
        }
      ],
      "stateMutability": "view",
      "type": "function"
    },
    {
      "inputs": [],
      "name": "totalSupply",
      "outputs": [
        {
          "internalType": "uint256",
          "name": "",
          "type": "uint256"
        }
      ],
      "stateMutability": "view",
      "type": "function"
    },
    {
      "inputs": [
        {
          "internalType": "address",
          "name": "to",
          "type": "address"
        },
        {
          "internalType": "uint256",
          "name": "value",
          "type": "uint256"
        }
      ],
      "name": "transfer",
      "outputs": [
        {
          "internalType": "bool",
          "name": "",
          "type": "bool"
        }
      ],
      "stateMutability": "nonpayable",
      "type": "function"
    },
    {
      "inputs": [
        {
          "internalType": "address",
          "name": "owner",
          "type": "address"
        }
      ],
      "name": "balanceOf",
      "outputs": [
        {
          "internalType": "uint256",
          "name": "",
          "type": "uint256"
        }
      ],
      "stateMutability": "view",
      "type": "function"
    },
    {
      "inputs": [
        {
          "internalType": "address",
          "name": "spender",
          "type": "address"
        },
        {
          "internalType": "uint256",
          "name": "value",
          "type": "uint256"
        }
      ],
      "name": "approve",
      "outputs": [
        {
          "internalType": "bool",
          "name": "",
          "type": "bool"
        }
      ],
      "stateMutability": "nonpayable",
      "type": "function"
    },
    {
      "inputs": [
        {
          "internalType": "address",
          "name": "from",
          "type": "address"
        },
        {
          "internalType": "address",
          "name": "to",
          "type": "address"
        },
        {
          "internalType": "uint256",
          "name": "value",
          "type": "uint256"
        }
      ],
      "name": "transferFrom",
      "outputs": [
        {
          "internalType": "bool",
          "name": "",
          "type": "bool"
        }
      ],
      "stateMutability": "nonpayable",
      "type": "function"
    }
  ],
  "bytecode": "0x608060405234801561000f575f5ffd5b5060405161099e38038061099e83398101604081905261002e9161014a565b5f610039848261023b565b506001610046838261023b565b5061005981670de0b6b3a76400006102f5565b6002819055335f81815260036020908152604080832085905551938452919290917fddf252ad1be2c89b69c2b068fc378daa952ba7f163c4a11628f55a4df523b3ef910160405180910390a350505061031e565b634e487b7160e01b5f52604160045260245ffd5b5f82601f8301126100d0575f5ffd5b81516001600160401b038111156100e9576100e96100ad565b604051601f8201601f19908116603f011681016001600160401b0381118282101715610117576101176100ad565b60405281815283820160200185101561012e575f5ffd5b8160208501602083015e5f918101602001919091529392505050565b5f5f5f6060848603121561015c575f5ffd5b83516001600160401b03811115610171575f5ffd5b61017d868287016100c1565b602086015190945090506001600160401b0381111561019a575f5ffd5b6101a6868287016100c1565b925050604084015190509250925092565b600181811c908216806101cb57607f821691505b6020821081036101e957634e487b7160e01b5f52602260045260245ffd5b50919050565b601f82111561023657805f5260205f20601f840160051c810160208510156102145750805b601f840160051c820191505b81811015610233575f8155600101610220565b50505b505050565b81516001600160401b03811115610254576102546100ad565b6102688161026284546101b7565b846101ef565b6020601f82116001811461029a575f83156102835750848201515b5f19600385901b1c1916600184901b178455610233565b5f84815260208120601f198516915b828110156102c957878501518255602094850194600190920191016102a9565b50848210156102e657868401515f19600387901b60f8161c191681555b50505050600190811b01905550565b808202811582820484141761031857634e487b7160e01b5f52601160045260245ffd5b92915050565b6106738061032b5f395ff3fe608060405234801561000f575f5ffd5b5060043610610090575f3560e01c806327e235e31161006357806327e235e3146100ff5780635c6581651461011e57806370a082311461014857806395d89b4114610170578063a9059cbb14610178575f5ffd5b806306fdde0314610094578063095ea7b3146100b257806318160ddd146100d557806323b872dd146100ec575b5f5ffd5b61009c61018b565b6040516100a991906104c8565b60405180910390f35b6100c56100c0366004610518565b610216565b60405190151581526020016100a9565b6100de60025481565b6040519081526020016100a9565b6100c56100fa366004610540565b610282565b6100de61010d36600461057a565b60036020525f908152604090205481565b6100de61012c36600461059a565b600460209081525f928352604080842090915290825290205481565b6100de61015636600461057a565b6001600160a01b03165f9081526003602052604090205490565b61009c6103da565b6100c5610186366004610518565b6103e7565b5f8054610197906105cb565b80601f01602080910402602001604051908101604052809291908181526020018280546101c3906105cb565b801561020e5780601f106101e55761010080835404028352916020019161020e565b820191905f5260205f20905b8154815290600101906020018083116101f157829003601f168201915b505050505081565b335f8181526004602090815260408083206001600160a01b038716808552925280832085905551919290917f8c5be1e5ebec7d5bd14f71427d1e84f3dd0314c0f7b2291e5b200ac8c7c3b925906102709086815260200190565b60405180910390a35060015b92915050565b6001600160a01b0383165f9081526004602090815260408083203384529091528120548211156102f25760405162461bcd60e51b8152602060048201526016602482015275496e73756666696369656e7420616c6c6f77616e636560501b60448201526064015b60405180910390fd5b6001600160a01b0384165f90815260046020908152604080832033845290915281208054849290610324908490610617565b90915550506001600160a01b0384165f9081526003602052604081208054849290610350908490610617565b90915550506001600160a01b0383165f908152600360205260408120805484929061037c90849061062a565b92505081905550826001600160a01b0316846001600160a01b03167fddf252ad1be2c89b69c2b068fc378daa952ba7f163c4a11628f55a4df523b3ef846040516103c891815260200190565b60405180910390a35060019392505050565b60018054610197906105cb565b335f9081526003602052604081205482111561043c5760405162461bcd60e51b8152602060048201526014602482015273496e73756666696369656e742062616c616e636560601b60448201526064016102e9565b335f908152600360205260408120805484929061045a908490610617565b90915550506001600160a01b0383165f908152600360205260408120805484929061048690849061062a565b90915550506040518281526001600160a01b0384169033907fddf252ad1be2c89b69c2b068fc378daa952ba7f163c4a11628f55a4df523b3ef90602001610270565b602081525f82518060208401528060208501604085015e5f604082850101526040601f19601f83011684010191505092915050565b80356001600160a01b0381168114610513575f5ffd5b919050565b5f5f60408385031215610529575f5ffd5b610532836104fd565b946020939093013593505050565b5f5f5f60608486031215610552575f5ffd5b61055b846104fd565b9250610569602085016104fd565b929592945050506040919091013590565b5f6020828403121561058a575f5ffd5b610593826104fd565b9392505050565b5f5f604083850312156105ab575f5ffd5b6105b4836104fd565b91506105c2602084016104fd565b90509250929050565b600181811c908216806105df57607f821691505b6020821081036105fd57634e487b7160e01b5f52602260045260245ffd5b50919050565b634e487b7160e01b5f52601160045260245ffd5b8181038181111561027c5761027c610603565b8082018082111561027c5761027c61060356fea2646970667358221220e42e804196760a08af5f0a47e682cff0421f886b1e3dbcc64243a9ecdae7c93064736f6c634300081b0033",
  "immutableReferences": {},
  "source": "// SPDX-License-Identifier: MIT\r\npragma solidity ^0.8.17;\r\n\r\ncontract TRC20Token {\r\n    string public name;\r\n    string public symbol;\r\n    uint256 public totalSupply;\r\n    mapping(address => uint256) public balances;\r\n    mapping(address => mapping(address => uint256)) public allowed;\r\n\r\n    event Transfer(address indexed from, address indexed to, uint256 value);\r\n    event Approval(address indexed owner, address indexed spender, uint256 value);\r\n\r\n    constructor(string memory _name, string memory _symbol, uint256 _initialSupply) {\r\n        name = _name;\r\n        symbol = _symbol;\r\n        totalSupply = _initialSupply * 10**18; // 18 decimales\r\n        balances[msg.sender] = totalSupply;\r\n        emit Transfer(address(0), msg.sender, totalSupply);\r\n    }\r\n\r\n    function transfer(address to, uint256 value) public returns (bool) {\r\n        require(value <= balances[msg.sender], \"Insufficient balance\");\r\n        balances[msg.sender] -= value;\r\n        balances[to] += value;\r\n        emit Transfer(msg.sender, to, value);\r\n        return true;\r\n    }\r\n\r\n    function balanceOf(address owner) public view returns (uint256) {\r\n        return balances[owner];\r\n    }\r\n\r\n    function approve(address spender, uint256 value) public returns (bool) {\r\n        allowed[msg.sender][spender] = value;\r\n        emit Approval(msg.sender, spender, value);\r\n        return true;\r\n    }\r\n\r\n    function transferFrom(address from, address to, uint256 value) public returns (bool) {\r\n        require(value <= allowed[from][msg.sender], \"Insufficient allowance\");\r\n        allowed[from][msg.sender] -= value;\r\n        balances[from] -= value;\r\n        balances[to] += value;\r\n        emit Transfer(from, to, value);\r\n        return true;\r\n    }\r\n}",
  "sourcePath": "D:\\_trabajo\\jsiewdass\\documentos\\Cursos\\cointribe-exchange\\backend\\tasks\\wallet-generator\\evm\\contracts\\TronContract.sol",
  "compiler": {
    "name": "solc",
    "version": "0.8.27+commit.40a35a09.Emscripten.clang"
  },
  "schemaVersion": "3.4.16",
  "updatedAt": "2024-10-22T14:11:19.666Z",
  "devdoc": {
    "kind": "dev",
    "methods": {},
    "version": 1
  },
  "userdoc": {
    "kind": "user",
    "methods": {},
    "version": 1
  }
}