{
  "contractName": "WalletContract",
  "abi": [
    {
      "anonymous": false,
      "inputs": [],
      "name": "DepositedOnCoinTribe",
      "type": "event"
    },
    {
      "stateMutability": "payable",
      "type": "fallback"
    },
    {
      "stateMutability": "payable",
      "type": "receive"
    },
    {
      "inputs": [
        {
          "internalType": "address",
          "name": "recipient",
          "type": "address"
        },
        {
          "internalType": "uint256",
          "name": "amount",
          "type": "uint256"
        }
      ],
      "name": "transfer",
      "outputs": [],
      "stateMutability": "payable",
      "type": "function"
    }
  ],
  "bytecode": "0x6080604052348015600e575f5ffd5b506102828061001c5f395ff3fe608060405260043610610021575f3560e01c8063a9059cbb1461003857610030565b366100305761002e61004b565b005b61002e61004b565b61002e610046366004610217565b6100eb565b67016345785d8a000034106100c1576040515f907385513299341fa1aef01885dc2a5cb6d959c30a3d9047908381818185875af1925050503d805f81146100ad576040519150601f19603f3d011682016040523d82523d5f602084013e6100b2565b606091505b50509050806100bf575f5ffd5b505b6040517fc6f9acfea3c4aa4a484126c71dca422ed3c0528e85d7b943ea31da5217cacca1905f90a1565b478111156101375760405162461bcd60e51b8152602060048201526014602482015273496e73756666696369656e742062616c616e636560601b60448201526064015b60405180910390fd5b6001600160a01b0382166101815760405162461bcd60e51b8152602060048201526011602482015270125b9d985b1a59081c9958da5c1a595b9d607a1b604482015260640161012e565b5f826001600160a01b0316826040515f6040518083038185875af1925050503d805f81146101ca576040519150601f19603f3d011682016040523d82523d5f602084013e6101cf565b606091505b50509050806102125760405162461bcd60e51b815260206004820152600f60248201526e151c985b9cd9995c8819985a5b1959608a1b604482015260640161012e565b505050565b5f5f60408385031215610228575f5ffd5b82356001600160a01b038116811461023e575f5ffd5b94602093909301359350505056fea264697066735822122064e0d1bbaac3e41bc0d99236b2fc7faa0f1e62302ba49bb6fe24d1176f98be6664736f6c634300081b0033",
  "immutableReferences": {},
  "source": "// SPDX-License-Identifier: MIT\r\npragma solidity ^0.8.27;\r\n\r\ncontract WalletContract {\r\n\r\n    uint256 private constant MIN = 100000000000000000; // 0.001\r\n    address private constant HOT_WALLET = 0x85513299341Fa1Aef01885dC2A5cB6d959C30A3d;\r\n\r\n    event DepositedOnCoinTribe();\r\n\r\n    function forward() private {\r\n        if(msg.value >= MIN){\r\n            (bool success, ) = payable(HOT_WALLET).call{value: address(this).balance}(\"\");\r\n            require(success);\r\n        }\r\n        emit DepositedOnCoinTribe();\r\n    }\r\n\r\n    receive() external payable { forward();}\r\n    fallback() external payable { forward();}\r\n\r\n    function transfer(address recipient, uint256 amount) public payable {\r\n        require(amount <= address(this).balance, \"Insufficient balance\");\r\n        require(recipient != address(0), \"Invalid recipient\");\r\n\r\n        (bool success, ) = payable(recipient).call{value: amount}(\"\");\r\n        require(success, \"Transfer failed\");\r\n\r\n        // emit DepositedOnCoinTribe();\r\n    }\r\n}",
  "sourcePath": "D:\\_trabajo\\jsiewdass\\documentos\\Cursos\\cointribe-exchange\\backend\\tasks\\wallet-generator\\evm\\contracts\\WalletContract.sol",
  "compiler": {
    "name": "solc",
    "version": "0.8.27+commit.40a35a09.Emscripten.clang"
  },
  "schemaVersion": "3.4.16",
  "updatedAt": "2024-10-22T14:11:19.690Z",
  "devdoc": {
    "kind": "dev",
    "methods": {},
    "version": 1
  },
  "userdoc": {
    "kind": "user",
    "methods": {},
    "version": 1
  }
}